{
  "contractName": "Medical",
  "abi": [
    {
      "inputs": [],
      "payable": false,
      "stateMutability": "nonpayable",
      "type": "constructor"
    },
    {
      "constant": true,
      "inputs": [],
      "name": "owner",
      "outputs": [
        {
          "internalType": "address",
          "name": "",
          "type": "address"
        }
      ],
      "payable": false,
      "stateMutability": "view",
      "type": "function"
    },
    {
      "constant": false,
      "inputs": [
        {
          "internalType": "address",
          "name": "newOwner",
          "type": "address"
        }
      ],
      "name": "transferOwnership",
      "outputs": [],
      "payable": false,
      "stateMutability": "nonpayable",
      "type": "function"
    },
    {
      "constant": false,
      "inputs": [
        {
          "internalType": "string",
          "name": "name",
          "type": "string"
        },
        {
          "internalType": "string",
          "name": "time",
          "type": "string"
        },
        {
          "internalType": "string",
          "name": "info",
          "type": "string"
        }
      ],
      "name": "saveinfo",
      "outputs": [],
      "payable": false,
      "stateMutability": "nonpayable",
      "type": "function"
    },
    {
      "constant": false,
      "inputs": [],
      "name": "deleteinfo",
      "outputs": [],
      "payable": false,
      "stateMutability": "nonpayable",
      "type": "function"
    },
    {
      "constant": true,
      "inputs": [],
      "name": "selectAll",
      "outputs": [
        {
          "internalType": "string",
          "name": "name",
          "type": "string"
        },
        {
          "internalType": "string",
          "name": "time",
          "type": "string"
        },
        {
          "internalType": "string",
          "name": "info",
          "type": "string"
        },
        {
          "internalType": "uint8",
          "name": "status_A",
          "type": "uint8"
        },
        {
          "internalType": "uint8",
          "name": "status_B",
          "type": "uint8"
        },
        {
          "internalType": "uint8",
          "name": "status_C",
          "type": "uint8"
        }
      ],
      "payable": false,
      "stateMutability": "view",
      "type": "function"
    },
    {
      "constant": false,
      "inputs": [
        {
          "internalType": "uint8",
          "name": "i",
          "type": "uint8"
        }
      ],
      "name": "update_A",
      "outputs": [],
      "payable": false,
      "stateMutability": "nonpayable",
      "type": "function"
    },
    {
      "constant": false,
      "inputs": [
        {
          "internalType": "uint8",
          "name": "i",
          "type": "uint8"
        }
      ],
      "name": "update_B",
      "outputs": [],
      "payable": false,
      "stateMutability": "nonpayable",
      "type": "function"
    },
    {
      "constant": false,
      "inputs": [
        {
          "internalType": "uint8",
          "name": "i",
          "type": "uint8"
        }
      ],
      "name": "update_C",
      "outputs": [],
      "payable": false,
      "stateMutability": "nonpayable",
      "type": "function"
    }
  ],
  "bytecode": "0x608060405234801561001057600080fd5b50336000806101000a81548173ffffffffffffffffffffffffffffffffffffffff021916908373ffffffffffffffffffffffffffffffffffffffff160217905550610cec806100606000396000f3fe608060405234801561001057600080fd5b50600436106100885760003560e01c80638da5cb5b1161005b5780638da5cb5b1461045a578063a3337bec146104a4578063a4843c74146104ae578063f2fde38b146104df57610088565b8063317e52aa1461008d5780634202c49f1461027657806367e055d8146102a7578063857cb0eb146102d8575b600080fd5b610274600480360360608110156100a357600080fd5b81019080803590602001906401000000008111156100c057600080fd5b8201836020820111156100d257600080fd5b803590602001918460018302840111640100000000831117156100f457600080fd5b91908080601f016020809104026020016040519081016040528093929190818152602001838380828437600081840152601f19601f8201169050808301925050505050505091929192908035906020019064010000000081111561015757600080fd5b82018360208201111561016957600080fd5b8035906020019184600183028401116401000000008311171561018b57600080fd5b91908080601f016020809104026020016040519081016040528093929190818152602001838380828437600081840152601f19601f820116905080830192505050505050509192919290803590602001906401000000008111156101ee57600080fd5b82018360208201111561020057600080fd5b8035906020019184600183028401116401000000008311171561022257600080fd5b91908080601f016020809104026020016040519081016040528093929190818152602001838380828437600081840152601f19601f820116905080830192505050505050509192919290505050610523565b005b6102a56004803603602081101561028c57600080fd5b81019080803560ff169060200190929190505050610637565b005b6102d6600480360360208110156102bd57600080fd5b81019080803560ff169060200190929190505050610669565b005b6102e061069b565b604051808060200180602001806020018760ff1660ff1681526020018660ff1660ff1681526020018560ff1660ff16815260200184810384528a818151815260200191508051906020019080838360005b8381101561034c578082015181840152602081019050610331565b50505050905090810190601f1680156103795780820380516001836020036101000a031916815260200191505b50848103835289818151815260200191508051906020019080838360005b838110156103b2578082015181840152602081019050610397565b50505050905090810190601f1680156103df5780820380516001836020036101000a031916815260200191505b50848103825288818151815260200191508051906020019080838360005b838110156104185780820151818401526020810190506103fd565b50505050905090810190601f1680156104455780820380516001836020036101000a031916815260200191505b50995050505050505050505060405180910390f35b610462610944565b604051808273ffffffffffffffffffffffffffffffffffffffff1673ffffffffffffffffffffffffffffffffffffffff16815260200191505060405180910390f35b6104ac610969565b005b6104dd600480360360208110156104c457600080fd5b81019080803560ff169060200190929190505050610aa6565b005b610521600480360360208110156104f557600080fd5b81019080803573ffffffffffffffffffffffffffffffffffffffff169060200190929190505050610ad8565b005b8260016000808152602001908152602001600020600001908051906020019061054d929190610c12565b5081600160008081526020019081526020016000206001019080519060200190610578929190610c12565b50806001600080815260200190815260200160002060020190805190602001906105a3929190610c12565b5060026001600080815260200190815260200160002060030160006101000a81548160ff021916908360ff160217905550600180600080815260200190815260200160002060030160016101000a81548160ff021916908360ff160217905550600180600080815260200190815260200160002060030160026101000a81548160ff021916908360ff160217905550505050565b806001600080815260200190815260200160002060030160026101000a81548160ff021916908360ff16021790555050565b806001600080815260200190815260200160002060030160016101000a81548160ff021916908360ff16021790555050565b60608060606000806000600160008081526020019081526020016000206000018054600181600116156101000203166002900480601f01602080910402602001604051908101604052809291908181526020018280546001816001161561010002031660029004801561074f5780601f106107245761010080835404028352916020019161074f565b820191906000526020600020905b81548152906001019060200180831161073257829003601f168201915b50505050509550600160008081526020019081526020016000206001018054600181600116156101000203166002900480601f0160208091040260200160405190810160405280929190818152602001828054600181600116156101000203166002900480156108005780601f106107d557610100808354040283529160200191610800565b820191906000526020600020905b8154815290600101906020018083116107e357829003601f168201915b50505050509450600160008081526020019081526020016000206002018054600181600116156101000203166002900480601f0160208091040260200160405190810160405280929190818152602001828054600181600116156101000203166002900480156108b15780601f10610886576101008083540402835291602001916108b1565b820191906000526020600020905b81548152906001019060200180831161089457829003601f168201915b505050505093506001600080815260200190815260200160002060030160009054906101000a900460ff1692506001600080815260200190815260200160002060030160019054906101000a900460ff1691506001600080815260200190815260200160002060030160029054906101000a900460ff169050858585858585955095509550955095509550909192939495565b6000809054906101000a900473ffffffffffffffffffffffffffffffffffffffff1681565b604051806020016040528060008152506001600080815260200190815260200160002060000190805190602001906109a2929190610c12565b50604051806020016040528060008152506001600080815260200190815260200160002060010190805190602001906109dc929190610c12565b5060405180602001604052806000815250600160008081526020019081526020016000206002019080519060200190610a16929190610c12565b50600180600080815260200190815260200160002060030160006101000a81548160ff021916908360ff160217905550600180600080815260200190815260200160002060030160016101000a81548160ff021916908360ff160217905550600180600080815260200190815260200160002060030160026101000a81548160ff021916908360ff160217905550565b806001600080815260200190815260200160002060030160006101000a81548160ff021916908360ff16021790555050565b6000809054906101000a900473ffffffffffffffffffffffffffffffffffffffff1673ffffffffffffffffffffffffffffffffffffffff163373ffffffffffffffffffffffffffffffffffffffff1614610b9a576040517f08c379a00000000000000000000000000000000000000000000000000000000081526004018080602001828103825260188152602001807f73656e646572206973206e6f7420617574686f72697a6564000000000000000081525060200191505060405180910390fd5b600073ffffffffffffffffffffffffffffffffffffffff168173ffffffffffffffffffffffffffffffffffffffff1614610c0f57806000806101000a81548173ffffffffffffffffffffffffffffffffffffffff021916908373ffffffffffffffffffffffffffffffffffffffff1602179055505b50565b828054600181600116156101000203166002900490600052602060002090601f016020900481019282601f10610c5357805160ff1916838001178555610c81565b82800160010185558215610c81579182015b82811115610c80578251825591602001919060010190610c65565b5b509050610c8e9190610c92565b5090565b610cb491905b80821115610cb0576000816000905550600101610c98565b5090565b9056fea265627a7a72315820e9243089f174e5e5ec34e67477d3a8672f616cb60960f2a2ea3dac6818a20c6a64736f6c63430005100032",
  "source": "pragma solidity >=0.4.21 <0.6.0;\n \n/**\n * owned是合约的管理者\n */\ncontract owned {\n    address public owner;\n \n    /**\n     * 初台化构造函数\n     */\n    constructor() public {\n        owner = msg.sender;\n    }\n \n    /**\n     * 判断当前合约调用者是否是合约的所有者\n     */\n    modifier onlyOwner {\n        require( msg.sender == owner,\n        \"sender is not authorized\");\n        _;\n    }\n \n    /**\n     * 合约的所有者指派一个新的管理员\n     * @param  newOwner address 新的管理员帐户地址\n     */\n    function transferOwnership(address newOwner) public onlyOwner{\n        if (newOwner != address(0)) {\n            owner = newOwner;\n        }\n    }\n}\n\ncontract Medical is owned{\n\n    //属性\n    struct Medicalinfo {\n        string name;//病人姓名\n        string time;    //就诊时间\n        string info;  //就诊信息\n        uint8  status_A;  //A医院状态 1是未授权，2是授权\n        uint8  status_B;  //B医院状态 1是未授权，2是授权\n        uint8  status_C;  //C医院状态 1是未授权，2是授权\n    }\n\n    //记录所有数据映射\n    mapping (uint => Medicalinfo) medicalinfo;\n\n    constructor() public{}\n\n\n    //保存\n    function saveinfo(string memory name ,string memory time,string memory info) public{        \n        medicalinfo[0].name = name;\n        medicalinfo[0].time=time;\n        medicalinfo[0].info=info;\n        medicalinfo[0].status_A=2;\n        medicalinfo[0].status_B=1;\n        medicalinfo[0].status_C=1;\n    }\n\n    //清空数据\n    function deleteinfo() public{\n        medicalinfo[0].name = \"\";\n        medicalinfo[0].time=\"\";\n        medicalinfo[0].info=\"\";\n        medicalinfo[0].status_A=1;\n        medicalinfo[0].status_B=1;\n        medicalinfo[0].status_C=1;\n    }\n \n    //查询数据\n    function selectAll() public view returns (string memory name ,string memory time,string memory info,uint8 status_A,uint8 status_B,uint8 status_C){\n        name=medicalinfo[0].name;\n        time=medicalinfo[0].time;\n        info=medicalinfo[0].info;\n        status_A=medicalinfo[0].status_A;\n        status_B=medicalinfo[0].status_B;  \n        status_C=medicalinfo[0].status_C;\n        return (name,time,info,status_A,status_B,status_C);\n    }\n\n    //审核\n    function update_A(uint8 i) public{\n        medicalinfo[0].status_A=i;\n    }\n    //审核\n    function update_B(uint8 i) public{\n        medicalinfo[0].status_B=i;\n    }\n    //审核\n    function update_C(uint8 i) public{\n        medicalinfo[0].status_C=i;\n    }\n\n}\n\n",
  "sourcePath": "/Users/yongyang/work/project/demo_contract_medical/contracts/Medical.sol",
  "compiler": {
    "name": "solc",
    "version": "0.5.16+commit.9c3226ce.Emscripten.clang"
  },
  "schemaVersion": "3.2.0",
  "updatedAt": "2020-07-14T02:17:03.147Z",
  "networkType": "ethereum",
  "devdoc": {
    "methods": {
      "transferOwnership(address)": {
        "params": {
          "newOwner": "address 新的管理员帐户地址"
        }
      }
    }
  },
  "userdoc": {
    "methods": {
      "transferOwnership(address)": {
        "notice": "合约的所有者指派一个新的管理员"
      }
    }
  }
}