{
  "contractName": "test",
  "abi": [
    {
      "constant": false,
      "inputs": [],
      "name": "add",
      "outputs": [],
      "payable": false,
      "stateMutability": "nonpayable",
      "type": "function"
    },
    {
      "constant": true,
      "inputs": [],
      "name": "get",
      "outputs": [
        {
          "internalType": "uint256",
          "name": "lens",
          "type": "uint256"
        }
      ],
      "payable": false,
      "stateMutability": "view",
      "type": "function"
    }
  ],
  "bytecode": "0x608060405234801561001057600080fd5b5060cb8061001f6000396000f3fe6080604052348015600f57600080fd5b506004361060325760003560e01c80634f2be91f1460375780636d4ce63c14603f575b600080fd5b603d605b565b005b6045608a565b6040518082815260200191505060405180910390f35b600060019080600181540180825580915050906001820390600052602060002001600090919290919091505550565b6000808054905090509056fea265627a7a7231582099eac349080d5e22d5dde86d2bcd6407fc6003dbf43d12aca937ab623aa9fa0164736f6c63430005100032",
  "source": "pragma solidity >=0.4.21 <0.6.0;\n\ncontract test {\n\n    uint[] len;\n\n\n    function add() public {\n        len.push(1);\n    }\n\n    function get() public view returns(uint lens){\n        return len.length;\n    }\n}\n",
  "sourcePath": "/Users/yongyang/work/project/demo_contract_medical/contracts/test.sol",
  "compiler": {
    "name": "solc",
    "version": "0.5.16+commit.9c3226ce.Emscripten.clang"
  },
  "schemaVersion": "3.2.0",
  "updatedAt": "2020-07-14T02:16:52.630Z",
  "devdoc": {
    "methods": {}
  },
  "userdoc": {
    "methods": {}
  }
}